:020000040800F2
:10000000181D0020E90E0008F10E0008F30E00088C
:10001000F50E0008F70E0008F90E000800000000B9
:10002000000000000000000000000000FB0E0008BF
:10003000FD0E0008000000005F110008D11200084A
:10004000030F0008030F0008030F0008030F000848
:10005000030F0008030F0008250C0008030F000819
:10006000030F0008030F0008030F0008030F000828
:10007000030F0008030F0008030F0008030F000818
:10008000030F0008F1030008030F0008030F000826
:10009000030F0008030F0008030F000809030008FE
:1000A000030F0008030F0008030F0008030F0008E8
:1000B000030F0008030F0008030F0008030F0008D8
:1000C000030F0008030F0008030F0008030F0008C8
:1000D000030F0008E3060008FD0800081D070008DC
:1000E000030F0008030F0008030F0008030F0008A8
:1000F000030F0008030F0008030F0008030F000898
:10010000030F0008030F0008030F0008030F000887
:10011000030F0008030F0008030F0008030F000877
:10012000030F0008030F0008030F0008030F000867
:10013000030F0008030F0008030F0008030F000857
:10014000030F0008030F0008030F0008030F000847
:10015000030F0008030F0008CD030008030F000879
:10016000030F0008030F0008030F0008030F000827
:10017000030F0008030F0008030F0008030F000817
:10018000030F0008030F0008DFF80CD005F0D6FFBE
:10019000004800472D020008181D00202C48006868
:1001A0006422B0FBF2F0411EB1F1807F00D31DE06C
:1001B00021F07F40401E4FF0E022506150170F2287
:1001C000002807DA13071F0E224B00F00F06361F18
:1001D0009F5503E013071E0E1F4B1E5400BF002047
:1001E0004FF0E02290610720106100BF002003F073
:1001F000D6F81A4908604FF4FA74002515E035B9AD
:10020000641C40F2EE20844205D3012503E0641E05
:10021000FA2C00D800252146114805F088F914234E
:1002200000221146104603F0BBFEE8E700F0C0F8DC
:1002300001F0EDFB3B230B4A0021AFF29F0003F0DE
:1002400033FB002003F032FF01F0D2FC00BFFEE7D9
:100250002C00002018ED00E000E400E00000002089
:100260000004004048020020704708B5002002F05A
:10027000C6FA32490860002303221946184603F0E3
:100280008FFE2F48006803F0C9F93CE06A464FF43E
:10029000FA712A48006802F03FFB05469DF800000D
:1002A00050BB2C78012C16D12021264804F0CAFA24
:1002B000012821D12448006824490968884206DDC4
:1002C0002248006820490860FFF7CEFF14E0642050
:1002D0001D49086010E01E48007868B120211948C7
:1002E00004F0B0FA012807D10020194908704FF432
:1002F0008071184804F0C0FA6423002211461046A9
:1003000003F04EFE00BFC1E710B501F098FB0A23D1
:1003100000221146104603F043FE2021094804F054
:1003200091FA012804D10C490448006802F0B2FB9C
:10033000202004F096F901F098FB10BD0C0000207D
:1003400000000020000402400400002008000020FB
:1003500010000020000002401100002010B50446EB
:10036000002C04DD0C21184804F086FA03E00C216F
:10037000154804F083FA10BD1CB50121102004F0CB
:100380009DFC0C20009001208DF8040003208DF8C6
:10039000050000208DF8060069460B4804F0F0F9CE
:1003A0000C21094804F06AFA0020FFF7D7FF1CBDB2
:1003B00010B5FFF7E1FF00F03FF800F073F800F030
:1003C00022FC00F084FD10BD0010024010B513495E
:1003D000134804F079F850B11049114804F09EF820
:1003E00000201049087000210D4803F0C3FF10BD24
:1003F00010B50D490D4804F067F870B10A490B4873
:1004000004F08CF800200A4908700021074803F026
:10041000B1FF8021074804F031FA10BD00800028A8
:10042000B86402401200002000802020A06002403A
:1004300013000020000C024008B500214FF00060BE
:1004400003F086FE4FF4407003F048FE25208DF83F
:10045000000000208DF801008DF8020001208DF8C9
:100460000300684603F03FFE26208DF800000020C0
:100470008DF8010001208DF802008DF80300684618
:1004800003F031FE27208DF8000000208DF80100D8
:1004900001208DF802008DF80300684603F023FE6A
:1004A00008BD000000B587B00121022004F006FC61
:1004B0000121102004F05CFC07220621FE4804F014
:1004C000EAF907221146FC4804F0E5F902208DF80C
:1004D000180003208DF8190000208DF81A00012063
:1004E0008DF81B004020059005A9F34804F048F959
:1004F0008020059005A9F04804F042F9EF4805F086
:10050000CDFB4FF4165001900020ADF80800ADF877
:100510000A00ADF80C00ADF810000C20ADF80E008C
:1005200001A9E64805F021FC4FF4A06003F0D6FDD8
:1005300025208DF8000000208DF801008DF80200C4
:1005400001208DF80300684603F0CDFD0121DB4852
:1005500005F093FC012240F22551D84805F043FDF7
:1005600007B000BD00B589B00121480404F0EFFBDD
:10057000D34805F093FB03A805F05DFC684605F041
:1005800076FC02208DF820008DF8210000208DF8E7
:10059000220001208DF823002020079007A9C948D8
:1005A00004F0EEF807220521C64804F074F9402053
:1005B000079007A9C34804F0E3F807220621C148C1
:1005C00004F069F96946BE4805F041FC4FF4E1309A
:1005D00003900020ADF81000ADF81200ADF8140043
:1005E000ADF818000C20ADF8160003A9B44805F0CA
:1005F000BCFB4FF4A06003F071FD26208DF80800CD
:1006000000208DF809008DF80A0001208DF80B00FC
:1006100002A803F068FD0121A94805F02EFC09B0ED
:1006200000BD00B587B00121082004F047FB01217F
:10063000880404F08CFB07220821A24804F02BF95F
:10064000072209219F4804F026F902208DF818009E
:1006500003208DF8190000208DF81A0001208DF874
:100660001B000002059005A9964804F089F80120B6
:100670008DF81A004002059005A9924804F080F810
:100680004FF4165001900020ADF80800ADF80A00B4
:10069000ADF80C00ADF810000C20ADF80E0001A96B
:1006A000894805F062FB4FF4A06003F017FD272096
:1006B0008DF8000000208DF801008DF80200012067
:1006C0008DF80300684603F00EFD01217E4805F019
:1006D000D4FB012240F225517B4805F084FC07B091
:1006E00000BD10B501F0ABF940F22551734805F09B
:1006F000B5FC80B1714805F0EFFB7449744A12688B
:10070000885473480068401C7149086008460068B6
:10071000C0F30900086001F0A8F910BD10B501F0A0
:100720008EF940F22551684805F098FC18B16648EA
:1007300005F0D2FB044640F22661634805F08EFCCA
:1007400020B140F22661604805F0C3FC01F08DF94C
:1007500010BD70B504460D46002605E0761C4FF628
:10076000FF70864200D303E05A4800780028F5D194
:1007700000BF01205749087057480460A9B2564885
:100780000C3803F018FE012153480C3803F0F2FD39
:1007900070BD10B50246002000BF0AE0135C474C54
:1007A000A38000BF454B1B8803F04003002BF9D00A
:1007B000401C8842F2D310BD70B504460D46002699
:1007C0008021404804F058F805E0761C4FF6FF7091
:1007D000864200D303E0414800780028F5D100BFED
:1007E00001203E4908703E480460A9B23C480C38DC
:1007F00003F0E1FD01213A480C3803F0BBFD70BD68
:1008000000E0401E0028FCD1704770B505460E463A
:10081000002480212B4804F02FF84FF49670FFF746
:10082000EFFF00BF0BE0285D2549091D088000BFD0
:100830002348008800F040000028F9D0641CB4422E
:10084000F1D33220FFF7DCFF80211E4804F016F8B8
:1008500070BD00B587B00121082004F02FFA0121F6
:10086000480404F074FA07220521164804F013F82E
:1008700007220621134804F00EF86020059002209C
:100880008DF818008DF8190000208DF81A0001204D
:100890008DF81B0005A90B4803F072FF4FF41650AA
:1008A00001900020ADF80800ADF80A00ADF80C008A
:1008B000ADF81000082015E00004024000100140CF
:1008C00000440040000C0240004800404C0600205C
:1008D0002000002012000020C46402401300002009
:1008E000AC600240ADF80E0001A9414805F03DFAA8
:1008F00001213F4805F0C1FA07B000BD10B5002442
:1009000001F09DF840F22551394805F0A7FBA0B150
:10091000374805F0E1FAC4B23648374909784454FB
:10092000354800781D2805DA33480078401C3249E4
:10093000087002E000203049087001F096F810BD00
:1009400070B505460E46002400BF0BE0295D28481F
:1009500005F0BEFA00BF4021254805F069FB0128DB
:10096000F9D1641CB442F1D370BD2DE9F0438BB0D2
:1009700005460E46304605F0D9FB00F0FF0808F1A9
:100980000300C7B27819C4B2002003E0315C2144EF
:10099000CCB2401C4045F9DB2046E11704EB116165
:1009A0000912A4EB012101F0FF09CDF8289013A052
:1009B000006809902022124901A805F099FB8DF8E2
:1009C00005708DF80650314601A805F0A3FB0AA971
:1009D00001A805F09FFB09A901A805F09BFBB81C25
:1009E000C1B201A8FFF7ACFF0BB0BDE8F083000077
:1009F000004400404C0A002028000020EF000000C6
:100A00008061000830B58BB00446E04800684008BB
:100A1000B0FBF4F0401E85B20121084604F0A8F9AD
:100A20000121084604F04AF901220821D84803F0C0
:100A300032FF01220921D64803F02DFF01220A21AD
:100A4000D34803F028FF01220B21D14803F023FFF4
:100A50004FF47060099002208DF8280003208DF873
:100A6000290000208DF82A008DF82B0009A9C8481C
:100A700003F086FEADF818500020ADF81A004FF4D0
:100A8000FA6007900020ADF820008DF8220006A93A
:100A9000C04804F05EFB6020ADF804000120ADF812
:100AA000060000200390ADF8100001A9B94804F039
:100AB000E5FB0821B74804F06EFD0120ADF8060003
:100AC0000020039001A9B34804F011FC0821B148AB
:100AD00004F06AFD0120ADF806000020039001A992
:100AE000AC4804F051FC0821AA4804F06AFD01203A
:100AF000ADF806000020039001A9A64804F0AAFC66
:100B00000821A44804F066FD0121A24804F08CFBF2
:100B10000121A04804F0A6FB01219E4804F093FFA8
:100B20000BB030BD00B585B00121880304F020F979
:100B30000121102004F0C2F84FF4F0600190012070
:100B40008DF8080003208DF8090000208DF80A00B8
:100B500001208DF80B0001A98F4803F011FE01213F
:100B6000022004F0ABF80320019000208DF808006B
:100B700003208DF8090001208DF80A008DF80B0084
:100B800001A9854803F0FCFD0021012004F0FBF9D8
:100B90000320039000208DF8100010208DF8110024
:100BA00001208DF8120003A803F0EAFC06208DF85E
:100BB00000000E208DF801008DF8020001208DF854
:100BC0000300684603F08FFA07208DF800000F201D
:100BD0008DF801008DF8020001208DF803006846B1
:100BE00003F081FA05B000BD70B504460D46012C36
:100BF00004D12946674804F09AFC03E02946654879
:100C000004F097FC70BD10B5FFF78CFF6348FFF749
:100C1000F9FE10BD10B5624803F01DFE00F003049C
:100C2000204610BD10B5012003F010FD10B10120C9
:100C300003F017FD10BD70B504460D464FF4C071AA
:100C4000554803F019FE4FF4C061534803F016FEF7
:100C50002146504804F06BFC21464E4804F069FCE4
:100C600021464C4804F067FC21464A4804F065FCE4
:100C700070BD70B504460D464FF4C071464803F090
:100C8000FDFD4FF4C061444803F0F6FD21464148A4
:100C900004F04DFC21463F4804F04BFC21463D4802
:100CA00004F049FC21463B4804F047FC70BD70B598
:100CB00004460D464FF4F061374803F0DFFD21464E
:100CC000344804F034FC2146324804F032FC21461A
:100CD000304804F030FC21462E4804F02EFC70BD54
:100CE00070B504460D464FF4F0612B4803F0C4FD87
:100CF0002146284804F01BFC2146264804F019FC34
:100D00002146244804F017FC2146224804F015FC33
:100D100070BD70B504460D464FF440711E4803F097
:100D2000ADFD4FF490611C4803F0A6FD2146194823
:100D300004F0FDFB2146174804F0FBFB2146154853
:100D400004F0F9FB2146134804F0F7FB70BD70B5C1
:100D500004460D464FF440710F4803F08DFD4FF4EB
:100D600090610D4803F08AFD21460A4804F0DFFB3C
:100D70002146084804F0DDFB2146064804F0DBFB71
:100D80002146044804F0D9FB70BD00002C0000206F
:100D9000000002400000014000100240002D31011F
:100DA0000004024030B58BB004464B480068400850
:100DB000B0FBF4F0401E85B20121022003F0C7FF12
:100DC0000121042003F07AFF02220621434803F0A8
:100DD00062FD02220721414803F05DFD0222082145
:100DE0003E4803F058FD022209213C4803F053FD20
:100DF0004FF47070099002208DF8280003208DF8C0
:100E0000290000208DF82A0001208DF82B0009A967
:100E1000324803F0B5FCADF818500020ADF81A00C8
:100E20004FF47A7007900020ADF820008DF8220072
:100E300006A92B4804F08DF96020ADF804000120CC
:100E4000ADF806004FF4FA7003900020ADF81000E2
:100E500001A9234804F012FA0821214804F09BFB61
:100E60000120ADF8060040F2EE20039001A91C48D5
:100E700004F03DFA08211A4804F096FB0120ADF871
:100E800006004FF4FA70039001A9154804F07CFAAB
:100E90000821134804F095FB0120ADF80600FA2064
:100EA000039001A90E4804F0D5FA08210C4804F07B
:100EB00091FB01210A4804F0B7F90121084804F028
:100EC000D1F90121064804F0BEFD0BB030BD10B5CC
:100ED0000448FFF767FF10BD2C0000200008024007
:100EE0000004004020A1070006488047064800474C
:100EF000FEE7FEE7FEE7FEE7FEE7FEE7FEE7FEE7CA
:100F0000FEE7FEE7E90F0008890100080CB50020A4
:100F1000019000907648006840F480307449086081
:100F200000BF7348006800F4003000900198401C36
:100F30000190009818B90198B0F5A04FF1D16C4814
:100F4000006800F4003010B10120009001E00020A2
:100F500000900098012846D165484030006840F074
:100F600080506349403108606248006840F4404066
:100F7000604908605E48083000685D4908310860D3
:100F80000846006840F4004008600846006840F4E5
:100F9000A05008605848091F0860081F006840F00A
:100FA0008070091F086000BF5148006800F00070A1
:100FB0000028F9D040F20560504908604C480830DC
:100FC000006820F003004A490831086008460068BC
:100FD00040F00200086000BF45480830006800F09B
:100FE0000C000828F8D10CBD10B54548006840F445
:100FF0007000434908603E48006840F001003C49E9
:10100000086000203A4908310860394800683D49C5
:101010000840374908603C48091D0860081F0068FF
:1010200020F48020091F0860002031490C3108603D
:10103000FFF76CFF4FF0006031498039086010BD48
:1010400070B500200022022300240221284D08351B
:101050002D6805F00C0020B1042806D0082834D1F2
:1010600007E02A4D2A4E356033E02A4D284E356080
:101070002FE01F4D2D1D2D68C5F380541C4D2D1DD7
:101080002D6805F03F0154B1224DB5FBF1F5184E26
:10109000361D3668C6F3881605FB06F209E01B4DBF
:1010A000B5FBF1F5124E361D3668C6F3881605FB02
:1010B00006F20F4D2D1D2D68C5F301456D1C6B000B
:1010C000B2FBF3F5124E356003E0104D104E356063
:1010D00000BF00BF064D08352D68C5F303150E4E41
:1010E000705D0B4D2D68C540094E356070BD000028
:1010F000003802400070004008544007003C0240A5
:1011000088ED00E0FFFFF6FE103000240024F4001C
:101110002C00002040787D0130000020EFF310808B
:1011200072B6704780F31088704725484FF0FF0172
:101130000170002080F309882248012101702248B3
:101140004FF08051016062B6FEE71F484FF08051BA
:10115000016070471C484FF080510160704772B6C3
:10116000EFF3098050B1A0F1200080E8F00FA0F16A
:10117000400080EC108B15490968086000B51448E0
:1011800080475DF804EB134813490A7802700F4852
:1011900012490A680260106890EC108B00F1400060
:1011A00090E8F00F00F120002EF0100E80F3098877
:1011B0004EF0040E62B6704772B6704762B6704762
:1011C00022ED00E06600002004ED00E06C0000204D
:1011D000CD1200085B0000205C000020740000209D
:1011E00010B5FFF7E9FF10BD10B5FFF7E7FF10BD21
:1011F00070477047704770477047F0B504460D461A
:101200001046CC260660DD27061F304637600021D9
:1012100005E04FF0AA37061F30463760491C1029F9
:10122000F7D34FF08077061F30463760061F3046F1
:1012300034603A4F061F304637604FF01237061FB2
:10124000304637604FF00337061F304637604FF0A7
:101250000237061F304637607F10061F3046376062
:10126000061F304635604FF01137061F3046376095
:101270004FF01037061F304637604FF00937061F12
:10128000304637604FF00837061F304637604FF062
:101290000737061F304637604FF00637061F3046C7
:1012A00037604FF00537061F304637604FF0043780
:1012B000061F30463760002105E04FF0BB37061FA0
:1012C00030463760491C1029F7D3F0BD704770478E
:1012D00010B5FFF723FF044611480078401C104961
:1012E00008702046FFF71EFF00F0B9FC00F0BDFBC0
:1012F00010BD411E4FF0E0225161FF21094A1170DB
:101300004FF0E021096941F005014FF0E022116141
:101310001146096941F00201116170471B3F000845
:101320005900002023ED00E00146002002E0491CA6
:10133000421CD0B20A78002AF9D170472DE9F04159
:1013400005460E4614460027FA48007820B11120C1
:1013500020700020BDE8F0812878012808D00228FC
:1013600007D0032802D0042804D100E000BF00BF4A
:1013700000BF03E0012020700020EBE700BFFFF773
:10138000CDFE0746686930603068FFF7CDFF8046C4
:101390003846FFF7C7FE002020704046DAE72DE907
:1013A000F04105460E4614460027E248007818B181
:1013B00012202070BDE8F0812878012808D002288A
:1013C00007D0032802D0042804D100E000BF00BFEA
:1013D00000BF02E001202070ECE700BFFFF79EFE97
:1013E00007466E613846FFF79DFE0020207000BF63
:1013F000E0E7F0B5024612F8384F95785678383A5B
:101400000B4618680FE000F10B073F5DB74300F192
:101410000B0C0CF8047067463F5D17B9877AAF4331
:1014200087721B1D18680028EDD1F0BDC249C34A60
:101430001278885CC249095CBF4A515C01EBC0016B
:10144000C04A1170704710B50024FFF767FE0446CC
:10145000B8480078F8B9BC480078E0B9FFF7E6FF73
:10146000BA48B849097850F82100B9490860B54828
:101470000078B849097888420DD0B5480068C06B3B
:10148000401CB3490968C863B3480068401CB249AE
:101490000860FFF75AFE2046FFF744FE10BD70B506
:1014A00001460024AD4D2D68EC61AC4C24682162EE
:1014B0000B4618681BE0A94C246894F8385000F1DA
:1014C0000B04645DA54D2D6895F839502C43A34D50
:1014D0002D6895F8386000F10B05AC55847A9F4D66
:1014E0002D6895F83A502C4384721B1D186800280B
:1014F000E1D19A4C246894F83820914CA45C974D23
:101500002D6895F83950AC438D4DAC542C46A45CF5
:1015100044B9924C246894F83A50884C2478AC43EF
:10152000864D2C7070BD2DE9FF4F83B081460E466D
:101530001546DDF84080002000903060CA46DAF899
:10154000004018E02078062807D2DFE800F0060403
:10155000050307080AE009E008E000BF00BF01201A
:1015600088F80000002007B0BDE8F08F00BF0AF146
:10157000040ADAF80040002CE4D16E48007820B16B
:10158000022088F800000020EDE76F48007820B1C5
:101590000D2088F800000020E5E7FFF7BFFD009070
:1015A0000020029083460190CA46DAF800405DE0D0
:1015B0002078062849D2DFE800F048172A03494A74
:1015C000208960B12089401E208110C60120029030
:1015D000002001C50BF101001FFA80FB03E0019818
:1015E00040F0010001903CE0606858B1606801C5BE
:1015F0000020606010C6012002900BF101001FFA6C
:1016000080FB03E0019840F00200019029E0676848
:10161000F88AA8B13969081D3861086801C5B96838
:101620003869884201D178683861F88A401EF882AA
:1016300010C6012002900BF101001FFA80FB03E0AD
:10164000019840F0040001900BE000BF00BF00983B
:10165000FFF768FD00203060012088F80000584640
:1016600081E700BF0AF1040ADAF80040002C9FD19C
:101670000298012809D1002030600098FFF752FD40
:10168000002088F8000058466DE73448006890F85C
:101690003400019941F0800108433049096881F81C
:1016A000340000202D49096881F835002B4906983F
:1016B000096808634846FFF7F2FE0098FFF732FD1D
:1016C000FFF7C1FEFFF72AFD00902448006890F85C
:1016D000350020B101281BD0022818D100E000BF3E
:1016E0001E480068C4693CB110C6002030600BF190
:1016F00001001FFA80FB09E001201849096881F800
:101700003500494615480068FFF773FE06E000BF44
:10171000494612480068FFF76CFE00BF00BF0F4843
:10172000006890F83500D8B1012842D002283FD196
:1017300038E00000590000209E6100085D00002094
:101740005E0000205C0000205A000020AC0F00204A
:10175000740000205B000020400000206C0000208E
:10176000207806280DD2DFE800F00C0607030D0EE6
:10177000002001C511E000BFF7480068406A01C5BC
:101780000BE000BF00BF0098FFF7CCFC00203060EA
:10179000012088F800005846E5E600BF002088F8E0
:1017A00000000CE0002001C50E2088F8000006E0D3
:1017B00000BF002001C50A2088F8000000BF00BF5C
:1017C0000020E549096881F83400E349096881F897
:1017D0003500E1490968C861DF4909680862DE49E6
:1017E000096848620098FFF79DFC5846BBE67CB547
:1017F000002514E06946284602F09BFA064666B9C1
:10180000D64850F8254044B1012C06D0D4E9020155
:1018100000EB8100A0640198E064681CC5B23F2D14
:10182000E8D97CBD002402E0142002F08BFBCC48F8
:1018300000780028F8D0CB4800686421B0FBF1F0B4
:10184000C84908600846006828B90020C6490870E1
:10185000FF2002F0B0FA00BFFFF760FC0446C34867
:101860000068C34908600020C04908602046FFF7AF
:1018700059FCBF480068BB490968B0FBF1F0C0F1F2
:101880006400B9490870FFF7B7FCFFF7B0FF0A2002
:1018900002F058FBE0E700B587B00320002180226A
:1018A000B44BCDE90132CDE903104FF6FE703E2373
:1018B000B14A0090AFF2930002F04DF806AAAFA132
:1018C0003E2002F0B8F907B000BD002400BFFFF7CA
:1018D00025FC0446A5480068401CA4490860204631
:1018E000FFF720FCFFF786FCF1E700B587B0032087
:1018F00000218022A54BCDE90132CDE903104FF63E
:10190000FF703F23A24A0090AFF2410002F023F89B
:1019100006AAA0A13F2002F08EF907B000BD04E0A6
:10192000002200F8012B4A1E91B20029F8D170471D
:1019300030B5F0219B48FFF7F2FF9A4B03F11805F1
:10194000002408E0002018705D6097A058611833EB
:101950001835601C84B2092CF4D30020187058602C
:1019600091A058618F489149086030BD30B54FF45F
:10197000F2618F48FFF7D3FF4FF480717748FFF78C
:10198000CEFF8B4B03F15805002406E05D6186A075
:10199000186558335835601CC4B2152CF6D3002096
:1019A000586181A0186500208249086080488249FA
:1019B000086030BD0022814B1A708149002004E08C
:1019C000002201F8012B421CD0B20828F8D30022D3
:1019D0007C4B1A707C4B1A707C4B1A605E4B1A6001
:1019E000704700207A4908607A4908707A4908707F
:1019F0007A4908707A4908707A4908605B4908603A
:101A00005B4908605749086055490870704710B530
:101A1000FFF7E6FBFFF7E5FFFFF7CCFFFFF7A6FFB9
:101A2000FFF786FF00F0B2FE01F08BF901F087FCB2
:101A3000FFF75BFFFFF72FFFFFF7D6FB10BD10B5D9
:101A40000024FFF76BFB044665480078012808D1A5
:101A500060480078FF2804D25E480078401C5D4949
:101A600008702046FFF75EFB10BD10B500245C48EF
:101A70000078012830D1FFF751FB04465548007823
:101A800020B154480078401E5249087051480078EF
:101A9000F8B951480078E0B9FFF7C8FC2F484A4927
:101AA000097850F8210049490860474800784549BD
:101AB000097888420DD045480068C06B401C4349F6
:101AC0000968C86347480068401C46490860FFF73A
:101AD00041FB2046FFF726FB10BD10B5002440480F
:101AE0000078012811D1FFF719FB04463948007826
:101AF00040B939480078FF2804D237480078401CA4
:101B0000354908702046FFF70DFB10BD10B50024C5
:101B10003348007801286AD1FFF700FB04462E48BD
:101B20000078C0B12C480078401E2B490870084648
:101B3000007860B92748007828B92046FFF7F2FA04
:101B4000FFF781FC53E02046FFF7ECFA4FE0204618
:101B5000FFF7E8FA4BE047E06C000020AC0F0020F4
:101B600058000020500000204C0000206800002099
:101B700054000020AC0B0020A80D002075432F4F0F
:101B8000532D49492053746174000000AC0D0020AE
:101B9000A80F002075432F4F532D49492049646CED
:101BA000650000006C0A00203F0000004400002097
:101BB000AC10002078000020700000205D000020A4
:101BC0005E0000205B0000205C000020740000200C
:101BD00088000020590000205A00002067000020E3
:101BE00066000020400000202046FFF79BFA10BD51
:101BF00010B5E948007890B9FFF718FCE74800787D
:101C0000E7490870E748E549097850F82100E649B6
:101C1000086008460068E5490860FFF786FA10BDCD
:101C200010B50024022002F08DF9FFF777FA044680
:101C30000020DF4908602046FFF774FA0A2002F00E
:101C400081F9FFF76BFA0446D9480068D949086062
:101C50000120D94908702046FFF764FA10BD70B51D
:101C60000026FFF75BFA0646D4480068401CD349BB
:101C700008603046FFF756FAC7480078012853D16C
:101C8000CF48007820B1012804D0022809D103E010
:101C900001250BE0002509E001250120C849087055
:101CA00004E001250020C649087000BF00BF05B947
:101CB00070BDC448046833E0FFF730FA0646206B75
:101CC00050B3206B401E2063206B28BB94F8340077
:101CD00000F0370040B114F8340F20F037002070C6
:101CE00001206070343C02E0002084F8350094F854
:101CF000340000F0080078B93834A078B249097887
:101D00000843B14908702078B049085C61780843FD
:101D100014F83819AD4A505464693046FFF702FA96
:101D200094F836003F28C7D100BFC1E740F2211028
:101D30007047704710B590F8382001F10B039B5C99
:101D400090F83940A34301F10B04A35423469B5C54
:101D500023B98B7A90F83A40A3438B7210BD2DE9DA
:101D6000F04F05460F4690469946A87A98490E5C72
:101D700005F10B00805D11F800B00BEBC60000F020
:101D8000FF0A884850F82A4000202434E060276089
:101D9000207C20EA0800207484F81190207C243CE8
:101DA00000F0080068B994F83A00874909780843B8
:101DB000854908708548805D94F839100843834947
:101DC000885529462046FFF7B5FF206A20B12046F6
:101DD000216AFFF70EFBE5615046BDE8F08F10B5B4
:101DE000724A1268D061714A126892F8383000F174
:101DF0000B02D25C6D4B1B6893F839301A436B4B66
:101E00001B6893F8384000F10B031A55827A674B30
:101E10001B6893F83A301A438272644A126892F847
:101E200038106A4A525C614B1B6893F839309A4308
:101E3000664B5A541A46525C42B95C4A126892F890
:101E40003A30614A12789A435F4B1A7010BD0023F2
:101E5000837200F10B01002204E0002301F8013B32
:101E6000531CDAB2082AF8D3704705E011F8013B99
:101E700000F8013B531E9AB2002AF7D170472DE9B2
:101E8000F84F05460F4690469946DDE90AAB00201B
:101E90000090FFF743F900904E480468002C76D07C
:101EA0001C3454F8080C4B4908600098FFF73AF9C5
:101EB00044F81C7CA576002020766076606144F8AA
:101EC00018BC44F810AC44F8148C0C9824F80C0C92
:101ED00024F80A9C0020E077E810207705F007003E
:101EE000E076217F01208840A077E17E01208840B4
:101EF0006077002020606060E060A0602062A062E7
:101F00006062E0622063AFF2603060631C3C0026D8
:101F100006E0002104F1540040F82610701CC6B2FF
:101F2000002EF6D02046FFF7D2F92046FFF760F9E1
:101F3000FFF7F4F800901B4840F82540214800685E
:101F400060610020A0611F48006810B11D48006852
:101F500084611C4804603834A0781B490978084320
:101F60001949087020781949085C6178084314F809
:101F70003819164A505418480078401C1649087001
:101F80000098FFF7CFF80020BDE8F88FFFE7009832
:101F9000FFF7C8F84220F7E7660000205C00002049
:101FA0005B000020AC0F0020740000206C000020BB
:101FB0006800002050000020580000208800002009
:101FC0007C000020780000205D0000205E000020E2
:101FD0009E61000870000020670000202DE9F05F7E
:101FE00004460F4691461E464FF0000B2078052808
:101FF00004D0012030700020BDE8F09F09F0800A75
:10200000BAF1000F04D029F080094FF0010801E077
:102010004FF0000800203070FFF780F88346B9F1D8
:10202000000F2CD0B9F1010F3BD0B9F1020F03D052
:10203000B9F1030F46D111E0208900EA0705BD423E
:1020400006D1B8F1010F05D12089A843208101E014
:10205000702030705846FFF765F83AE0208900EAB2
:10206000070535B1B8F1010F05D12089A8432081BA
:1020700001E0702030705846FFF754F829E02089BD
:1020800027EA0005BD4206D1B8F1010F05D120892C
:102090002843208101E0702030705846FFF742F855
:1020A00017E0208927EA000535B1B8F1010F05D105
:1020B00020892843208101E0702030705846FFF7C6
:1020C00031F806E05846FFF72DF800256F203070F4
:1020D00000BF00BF28468FE72DE9F04106460D46B8
:1020E0000027FA48007820B1102028700020BDE8B1
:1020F000F081FFF713F80746F548046884B10068DB
:102100004068F34908600520207026810020606047
:10211000F0A0E0603846FFF705F80020287004E0E2
:102120003846FEF7FFFF722028702046DFE730B503
:1021300001464A6808682AB9CC68606028B1002561
:10214000456002E0106000B142608B6800259D622E
:1021500030BDF0B506460F46B46800202C346060F0
:102160002780207A20F02000207200206072207AE0
:102170002C3C88B93834A078D74909780843D64927
:1021800008702078D549085C6178084314F838193C
:10219000D24A5054012500E000253046FFF7C7FF22
:1021A0002846F0BD2DE9F0470446894615464FF014
:1021B000000AC648007820B10F2028702046BDE8EC
:1021C000F0872078052803D0012028702046F6E704
:1021D000FEF7A4FF8246606808B1012700E00027EF
:1021E000B9F1000F03D0B9F1010F3CD119E08FB95B
:1021F000B8A0E06000202070B54800686060002052
:102200002081B34804605046FEF78CFF0020287000
:10221000002605E05046FEF785FF49202870264637
:1022200028E0D4F8048005E000214046FFF791FF44
:10223000D8F80080B8F1000FF6D1A6A0E060002029
:102240002070A3480068606000202081A0480460DE
:102250005046FEF767FF012F01D1FFF7F4F8002089
:102260002870002606E05046FEF75CFF0720287025
:10227000264600BF00BF3046A1E72DE9F0410546E4
:102280000E46144600279148007820B11120207096
:102290000020BDE8F081FEF741FF074628780528B9
:1022A00006D03846FEF73EFF012020700020F0E700
:1022B000E86830603068FFF737F880463846FEF748
:1022C00031FF002020704046E3E72DE9F04105464C
:1022D0000E46144600277D48007818B11220207061
:1022E000BDE8F081FEF71AFF07462878052805D0DB
:1022F0003846FEF717FF01202070F1E7EE60384600
:10230000FEF710FF0020207000BFE9E7F0B514468B
:10231000059E734F3F6897F8347047F02007DFF849
:10232000C0C1DCF800C08CF834700027DFF8B0C101
:10233000DCF800C08CF83570694F3F683E63684F29
:102340003F68B9620C828B74654F3F688F60476845
:102350000F6000274F60C860456805B16960416043
:102360005F4F3F6897F838205C4FBF5CDFF870C163
:10237000DCF800C09CF839C027EA0C07DFF85CC124
:102380000CF802706746BF5C5FB9554F3F6897F81D
:102390003AC0514F3F7827EA0C07DFF83CC18CF870
:1023A0000070F0BD2DE9F04F89B005460F4691460B
:1023B0009A46129E002002904448007828B10220DC
:1023C0003070002009B0BDE8F08F4648007818B1A1
:1023D0000D2030700020F5E72878052803D0012073
:1023E00030700020EEE709F0800BBBF1000F04D045
:1023F00029F080094FF0010801E04FF00008FEF7D6
:102400008DFE0290B9F1000F4AD0B9F1010F78D0DA
:10241000B9F1020F03D0B9F1030F71D120E028897F
:1024200000EA0704BC420FD1B8F1010F02D128899C
:10243000A04328812A48006884850298FEF772FE2E
:10244000002030702046BDE74B463A4604A9284696
:10245000CDF800A0FFF75AFF0298FEF763FE78E080
:10246000288900EA07047CB1B8F1010F02D128895C
:10247000A04328811A48006884850298FEF752FE1E
:102480000020307020469DE74B463A4604A9284676
:10249000CDF800A0FFF73AFF0298FEF743FE58E0A0
:1024A000288927EA0004BC421ED1B8F1010F02D1ED
:1024B0002889204328810A48006884850298FEF70D
:1024C00031FE0020307020467CE71AE059000020E1
:1024D000480000203F0000005D0000205E0000205A
:1024E0006C0000205A0000204B463A4604A92846BA
:1024F000CDF800A0FFF70AFF0298FEF713FE28E0D0
:102500001FE0288927EA00047CB1B8F1010F02D14D
:10251000288920432881AD48006884850298FEF709
:1025200001FE0020307020464CE74B463A4604A995
:102530002846CDF800A0FFF7E9FE0298FEF7F2FD6D
:1025400007E00298FEF7EEFD00246F203070204671
:1025500038E700BFFEF777FFFEF7E0FD02909B48EB
:10256000006890F8350020B39848006890F835006E
:10257000039000209549096881F8350004A8FFF709
:10258000D6FD00209149096881F834000298FEF7D1
:10259000C9FD00240398012805D0022802D10E208D
:1025A000307003E000BF0A20307000BF00BF20463B
:1025B00008E786480068848DB8F1010F1ED1B9F193
:1025C000000F0ED0B9F1010F0CD0B9F1020F03D0FA
:1025D000B9F1030F0AD100E000BF2889A043288188
:1025E0000BE000BF28892043288106E00298FEF70F
:1025F00099FD6F2030700020E4E600BF0298FEF7DE
:1026000091FD002030702046DCE670B50025FEF715
:1026100085FD05466D480068848D2846FEF782FDDD
:10262000204670BD2DE9FC5F0446894692461E4651
:10263000002000902078052804D001203070002070
:10264000BDE8FC9FFEF76AFD0090BAF1000F03D0D1
:10265000BAF1010F0AD104E0208920EA09002081A3
:102660000BE0208940EA0900208106E00098FEF78F
:1026700059FD712030700020E2E700BF4FF0000BE1
:10268000656855E0A87C40B3012838D0022802D004
:10269000032844D111E02089298A00EA0107288A09
:1026A000B84209D139462846FFF753FD8046B8F1B4
:1026B000010F01D14FF0010B38E02089298A00EA8F
:1026C00001074FB139462846FFF743FD8046B8F170
:1026D000010F01D14FF0010B28E0288A218920EA5F
:1026E0000107288AB84209D139462846FFF731FD4B
:1026F0008046B8F1010F01D14FF0010B16E0288A96
:10270000218920EA01074FB139462846FFF721FD0C
:102710008046B8F1010F01D14FF0010B06E000989F
:10272000FEF700FD6F203070002089E700BF2D68A4
:10273000002DA7D10098FEF7F5FCBBF1010F01D1E8
:10274000FEF781FEFEF7EAFC0090208901900098D8
:10275000FEF7E8FC00203070019871E72DE9F041A8
:1027600004460D4600272078052804D00120287053
:102770000020BDE8F081FEF7D1FC074626893846E7
:10278000FEF7D0FC002028703046F2E770B55021EB
:102790000F48FFF7C4F80E4C04F11006002509E0BD
:1027A000002020706660AFF2D420E0601034103654
:1027B000681C85B2042DF3D3002020706060AFF256
:1027C000EC20E06002480349086070BD6C00002006
:1027D0005C0B00204800002070B5044600262078DD
:1027E000012801D0002070BDFEF798FC0646656800
:1027F000002060603046FEF795FC2846F3E770B590
:1028000005460026E848007808B1002070BDFEF7B4
:1028100085FC0646E5480468006820B1E348006886
:102820004068E24908603046FEF77CFC4CB101206C
:102830002070002020816560DDA060612046FFF7E8
:1028400006FB2046E2E72DE9F04704468846154698
:102850004FF000092078012804D00120287020467C
:10286000BDE8F087D048007818B10F2028702046C6
:10287000F6E7FEF753FC8146A07A08B1012700E095
:102880000027B8F1000F03D0B8F1010F3AD119E0D9
:102890008FB9C7A0606100202070C44800686060E4
:1028A00000202081C14804604846FEF73BFC002020
:1028B0002870002605E04846FEF734FC49202870C1
:1028C000264626E005E00023022219462046FFF7AF
:1028D00046FAA07A0028F6D1B5A0606100202070E9
:1028E000B2480068606000202081B048046048461B
:1028F000FEF718FC012F01D1FEF7A5FD002028707E
:10290000002606E04846FEF70DFC07202870264604
:1029100000BF00BF3046A3E72DE9F04105460F4652
:1029200014464FF000082878012804D001202070B8
:102930000020BDE8F0819C48007818B1022020708A
:102940000020F6E79B48007818B10D202070002089
:10295000EFE7FEF7E3FB80466E6846B10020686053
:102960004046FEF7DFFB002020703046E1E792484A
:10297000006890F8340040F002008F49096881F83F
:10298000340000208C49096881F835008A480068C5
:1029900007632846FFF723FA4046FEF7C3FBFEF71E
:1029A00052FDFEF7BBFB80468348006890F8350077
:1029B00020B101280DD002280AD105E07E48006828
:1029C000466A002020700DE000260E20207009E0ED
:1029D00000BF294678480068FFF7ACF900260A20B6
:1029E000207000BF00BF00207349096881F83400DF
:1029F0007149096881F835006F490968C8616E49F5
:102A0000096808626C49096848624046FEF78AFB1B
:102A100030468EE72DE9F04104460F4615464FF04B
:102A200000082078012804D0012028700020BDE88B
:102A3000F081FEF773FB8046A07A20B300267FB1B9
:102A4000012F0CD107E002231A4600212046FFF790
:102A500086F9701CC6B2A07A0028F4D109E000BF44
:102A600002231A4600212046FFF779F9701CC6B2EE
:102A700000BF00BF4046FEF755FBFEF7E4FC0E200A
:102A800028703046D3E74046FEF74CFB0020287004
:102A900000BFCCE770B504460D460026207801281B
:102AA00001D0012070BDFEF739FB0646A07A60B167
:102AB0000023022229462046FFF751F93046FEF74F
:102AC00031FBFEF7C0FC0020ECE7606820B1304627
:102AD000FEF728FB1420E5E765603046FEF722FB91
:102AE0000020DFE72DE9F04104460E461546002799
:102AF0002078012802D00120BDE8F081FEF70EFB0E
:102B00000746A07AE8B105F0010050B105E00023C6
:102B1000022231462046FFF722F9A07A0028F6D19A
:102B200005E00023022231462046FFF718F9384617
:102B3000FEF7F8FA05F0040008B9FEF784FC00205F
:102B4000DAE7606820B13846FEF7ECFA1420D3E7E4
:102B500066603846FEF7E6FA0020CDE72DE9F0473B
:102B600004460D464FF000092078012802D00120CC
:102B7000BDE8F087FEF7D2FA8146A07A287304F107
:102B80000B0705F10408002605E017F8010B08F80B
:102B9000010B701CC6B2082EF7D360682860484647
:102BA000FEF7C0FA0020E3E75900002044000020AF
:102BB0003F0000005A0000206C0000202DE9F84F73
:102BC00005460F4690469A4600200090FEF7A6FA6A
:102BD00000906B480468006820B16948006840684C
:102BE000674908600098FEF79DFA2CB95A208AF8C8
:102BF00000000020BDE8F88F2E4605EB08094FF0D5
:102C0000000B05E0C6F800904E46C1440BF1010BE5
:102C1000781E5845F6D80020306025606560276131
:102C2000E760C4F808808AF800002046E2E72DE952
:102C3000F04104460D460027FEF770FA074620696A
:102C400068B16668306860602069401E206138465F
:102C5000FEF768FA002028703046BDE8F08138465B
:102C6000FEF760FA5D2028700020F6E72DE9F041BC
:102C700006460C46154600274248007820B1112030
:102C800028700020BDE8F081FEF748FA0746706919
:102C900020602068FEF748FB80463846FEF742FA7F
:102CA000002028704046EDE72DE9F04105460E462C
:102CB000144600273348007818B112202070BDE870
:102CC000F081FEF72BFA07466E613846FEF72AFAC6
:102CD0000020207000BFF2E770B504460D460026C4
:102CE000FEF71CFA0646D4E90310884204D33046A6
:102CF000FEF718FA5E2070BD606828606560206984
:102D0000401C20613046FEF70DFA0020F3E770B555
:102D100005460C460026FEF701FA064628682060A4
:102D200068686060A868A060E868E0602869206161
:102D30003046FEF7F7F9D4E90301401A606100203C
:102D400070BD70B578211048FEF7E9FD0E4C0025E6
:102D50000BE0681C00EB40000B4901EBC000606019
:102D60000AA060611834681C85B2042DF1D30020DC
:102D7000606006A0606104480149086070BD000001
:102D800080000020590000203C1800203F00000077
:102D90002DE9F04106460D464FF000083078022834
:102DA00004D0012028700020BDE8F081FEF7B6F9BC
:102DB00080467468E08A78B12169081D20610F6837
:102DC000E08A401EE082A1682069884201D16068E3
:102DD00020610020287002E01F2028700027404654
:102DE000FEF7A0F93846DFE72DE9F04106460F4629
:102DF0004FF00008F748007810B10020BDE8F081DE
:102E0000FEF78CF98046F4480468006820B1F24867
:102E100000684068F04908604046FEF783F9FCB15D
:102E2000FEF77CF98046ED480568D5B1006800687A
:102E3000EA4908604046FEF775F96E6006EB8700C8
:102E4000A860EE602E61AF820020E8820220207030
:102E5000002020816560E2A060612046FEF7F7FF58
:102E600008E0DD4800686060DB4804604046FEF72B
:102E700059F900242046C1E72DE9F0470446894668
:102E800015464FF0000A2078022804D0012028704F
:102E90002046BDE8F087CF48007818B10F20287091
:102EA0002046F6E7FEF73AF98246A07A10B14FF0D5
:102EB000010801E04FF00008B9F1000F03D0B9F1AB
:102EC000010F49D121E0B8F1000F17D1C4A0606112
:102ED0006668C24800683060C04806600020207004
:102EE000BD480068606000202081BB4804605046F7
:102EF000FEF718F900202870002705E05046FEF77D
:102F000011F94920287027462DE005E0002304220E
:102F100019462046FEF723FFA07A0028F6D1B0A07C
:102F200060616668AD4800683060AC4806600020AB
:102F30002070A9480068606000202081A6480460D5
:102F40005046FEF7EFF8B8F1010F01D1FEF77BFA1A
:102F500000202870002706E05046FEF7E3F807201F
:102F60002870274600BF00BF384692E770B5054677
:102F70000026FEF7D3F806466C686068E06060687B
:102F800020610020E0823046FEF7CCF8002070BDC2
:102F90002DE9F0470746884615464FF00009387876
:102FA000022804D0012028700020BDE8F08789485D
:102FB000007818B1022028700020F6E789480078D0
:102FC00018B10D2028700020EFE7FEF7A7F8814622
:102FD0007C68E08A98B12169081D20610E68E08A4A
:102FE000401EE082A1682069884201D160682061AA
:102FF0004846FEF797F8002028703046D5E77A4813
:10300000006890F8340040F004007749096881F8BE
:10301000340000207449096881F83500724800685E
:10302000C0F830803846FEF7DAFE4846FEF77AF8F8
:10303000FEF709FAFEF772F881466B48006890F8CF
:10304000350020B101280DD002280AD105E06648DC
:103050000068466A002028700DE000260E202870C7
:1030600009E000BF394660480068FEF763FE0026AD
:103070000A20287000BF00BF00205B49096881F862
:1030800034005949096881F8350057490968C86111
:103090005549096808625449096848624846FEF77C
:1030A00041F8304681E72DE9F04104460F461546C8
:1030B0004FF000082078022804D00120287000205A
:1030C000BDE8F081FEF72AF88046A07A20B30026FA
:1030D0007FB1012F0CD107E00223042200212046FA
:1030E000FEF73DFE701CC6B2A07A0028F4D109E0BC
:1030F00000BF0223042200212046FEF730FE701C90
:10310000C6B200BF00BF4046FEF70CF8FEF79BF9C1
:103110000E2028703046D3E74046FEF703F8002023
:10312000287000BFCCE72DE9F04105460E46002788
:103130002878022802D00120BDE8F081FDF7EEFFDB
:103140000746A87A60B10023042231462846FEF7DC
:1031500006FE3846FDF7E6FFFEF775F90020EBE7BF
:103160006C68E08AA18A884204DB3846FDF7DAFF02
:103170001E20E1E7E168081DE0600E60E08A401C67
:10318000E082D4E90210884201D16068E0603846EC
:10319000FDF7C8FF0020CFE72DE9F04105460E46B8
:1031A00000272878022802D00120BDE8F081FDF731
:1031B000B5FF0746A87AC8B1002304223146284645
:1031C000FEF7CDFD3846FDF7ADFFFEF73CF90020D8
:1031D000EBE700005900002044000020840000209C
:1031E0003F0000005A0000206C0000206C68E08A5C
:1031F000A18A884204DB3846FDF794FF1E20D4E7FD
:1032000061682069884201D1A06820612069001F9F
:10321000206120690660E08A401CE0823846FDF7A4
:1032200081FF0020C1E72DE9F04105460F46164613
:103230004FF000082878022802D00120BDE8F08174
:10324000FDF76CFF8046A87AE8B106F0010050B1A6
:1032500005E00023042239462846FEF780FDA87ABF
:103260000028F6D105E00023042239462846FEF75F
:1032700076FD4046FDF756FF06F0040008B9FEF75C
:10328000E2F80020DAE76C68E08AA18A884204DB71
:103290004046FDF747FF1E20D0E706F0020058B178
:1032A00061682069884201D1A06820612069001FFF
:1032B00020612069076009E0E168081DE0600F6097
:1032C000D4E90210884201D16068E060E08A401CC5
:1032D000E0824046FDF726FF0020AFE72DE9F047EA
:1032E00005460C464FF0000A2878022802D001203B
:1032F000BDE8F087FDF712FF8246A87A207405F139
:103300000B0804F10809002705E018F8010B09F87B
:10331000010B781CC7B2082FF7D36E68F08A18B17A
:1033200030690068206001E000202060F08AA08001
:10333000B08AE0805046FDF7F5FE0020D8E770B572
:1033400060210A48FEF7EBFA084C04F11806002544
:1033500004E0266018341836681C85B2032DF8D3B3
:103360000020206001480249086070BDB4180020A8
:103370008400002070B5044600262078032801D080
:10338000002070BDFDF7CAFE0646258915B12089CB
:10339000401E20813046FDF7C5FE2846F1E770B596
:1033A00005460026D848007808B1002070BDFDF71A
:1033B000B5FE0646D5480468006820B1D3480068C9
:1033C0004068D24908603046FDF7ACFE4CB103209E
:1033D0002070258100206060CDA060612046FEF74E
:1033E00036FD2046E2E72DE9F047044688461546BB
:1033F0004FF000092078032804D0012028702046CF
:10340000BDE8F087C048007818B10F20287020462A
:10341000F6E7FDF783FE8146A07A08B1012700E0B8
:103420000027B8F1000F03D0B8F1010F3AD119E02D
:103430008FB9B7A0606100202070B4480068606058
:1034400000202081B14804604846FDF76BFE002053
:103450002870002605E04846FDF764FE49202870E4
:10346000264626E005E00023012219462046FEF705
:1034700076FCA07A0028F6D1A5A06061002020701B
:10348000A2480068606000202081A048046048468F
:10349000FDF748FE012F01D1FDF7D5FF0020287070
:1034A000002606E04846FDF73DFE07202870264628
:1034B00000BF00BF3046A3E72DE9F04105460E46A8
:1034C000144600272878032803D001202070BDE887
:1034D000F0818D48007810B102202070F7E78D4808
:1034E000007810B10D202070F1E7FDF717FE0746B8
:1034F000288940B12889401E28813846FDF712FEF0
:1035000000202070E3E78448006890F8340040F021
:1035100001008149096881F8340000207E4909686A
:1035200081F835007C48006806632846FEF757FCA2
:103530003846FDF7F7FDFDF786FFFDF7EFFD07467F
:103540007548006890F8350020B1012809D002289C
:1035500006D102E0002020700BE00E20207008E071
:1035600000BF29466C480068FEF7E4FB0A20207083
:1035700000BF00BF00206849096881F8340066492F
:10358000096881F8350064490968C86162490968B9
:1035900008623846FDF7C6FD00BF98E72DE9F04107
:1035A00004460F4615464FF000082078032804D043
:1035B000012028700020BDE8F081FDF7AFFD8046B6
:1035C000A07A20B300267FB1012F0CD107E002239F
:1035D000012200212046FEF7C2FB701CC6B2A07A71
:1035E0000028F4D109E000BF022301220021204677
:1035F000FEF7B5FB701CC6B200BF00BF4046FDF72A
:1036000091FDFDF720FF0E2028703046D3E740469D
:10361000FDF788FD0020287000BFCCE770B5044698
:1036200000252078032801D0012070BDFDF776FD2C
:103630000546A07A60B10023012219462046FEF714
:103640008EFB2846FDF76EFDFDF7FDFE0020ECE742
:1036500020894FF6FF71884207D22089401C2081C3
:103660002846FDF75FFD0020DFE72846FDF75AFDFD
:103670003220DAE72DE9F04704460D464FF0000905
:103680002078032802D00120BDE8F087FDF746FD31
:103690008146A07AA87204F10B07AE1C4FF0000817
:1036A00007E017F8010B06F8010B08F1010000F024
:1036B000FF08B8F1080FF4D3208928804846FDF7A9
:1036C00031FD0020E0E72DE9F04104460E461546A5
:1036D00000272078032803D001202870BDE8F0815E
:1036E000FDF71CFD074600202870208908B12681BF
:1036F00005E0A07A08B9268101E049202870384603
:10370000FDF710FD00BFE9E759000020440000204C
:103710003F0000005A0000206C0000202DE9F34F0C
:1037200085B0884600200190FDF7F8FC0190FE4826
:1037300050F8280030B10198FDF7F4FC282007B0BC
:10374000BDE8F08F0598FF2804D1F848006890F88C
:1037500036000590F449059851F8205025B9019894
:10376000FDF7E0FC2920EAE7012D04D10198FDF7DF
:10377000D9FC4320E3E74FEAE80708F0070003908D
:103780000120B84000F0FF0901210398814001F0B9
:10379000FF0A0021E44A059842F82010104640F83C
:1037A000285095F8386095F83A00029095F839B0AD
:1037B000DF48805D00EA0B00D0B1DD48805D20EA83
:1037C0000B00DB4988550846805D28B9D948007848
:1037D00002998843D7490870D648007840EA090022
:1037E000D4490870D248C05D40EA0A00D049C855A3
:1037F000EC69D4B104F10B00805D20EA0B0004F108
:103800000B0188550846805D18B9A07A0299884353
:10381000A072A07A40EA0900A07204F10B00C05D1A
:1038200040EA0A0004F10B01C855286A30B3286A3F
:103830000490049804681FE004F10B00805D20EA06
:103840000B0004F10B0188550846805D18B9A07A79
:1038500002998843A072A07A40EA0900A07204F19C
:103860000B00C05D40EA0A0004F10B01C855049842
:10387000001D049004980468002CDDD185F8368082
:1038800085F83870039885F8370085F83A9085F800
:1038900039A00198FDF746FCA7480078012801D11E
:1038A000FDF7D1FD00204AE72DE9FE4F06460F4601
:1038B00090461C464FF00009FDF730FC81469F48BA
:1038C000007828B14846FDF72DFC3C20BDE8FE8F6E
:1038D000954850F8240060BB0120934941F824002A
:1038E0004846FDF71FFC0023424639463046FDF7A7
:1038F00084FC824600200090019003460246514617
:1039000002902046FEF7BBFA054635B98A48007892
:1039100001280CD1FDF797FD09E0FDF7FFFB81467B
:103920000020814941F824004846FDF7FBFB28466A
:10393000CCE74846FDF7F6FB2820C7E702F0010375
:1039400043B102F002032BB102E0491E002308C07C
:103950000029FAD170472DE9F04F85B081468A469B
:1039600093461C46DDE90F78129D00200390FDF779
:10397000D5FB03907148007830B10398FDF7D2FB76
:103980003C2005B0BDE8F08F674850F8240088BBA4
:103990000120654941F824000398FDF7C3FB2A463E
:1039A00041463846FFF7CAFF2B465A46514648461D
:1039B000FDF723FC04901198CDE9008002953A466A
:1039C00020460E9B0499FEF75AFA064636B95A4825
:1039D000007801280CD1FDF736FD09E0FDF79EFBCC
:1039E00003900020504941F824000398FDF79AFB0A
:1039F0003046C6E7FFE70398FDF794FB2820C0E7B1
:103A00002DE9F041054600274C48007810B14020D0
:103A1000BDE8F0813F2D01D13E20F9E7FDF77EFBA7
:103A20000746FF2D03D14148006890F836503E48C4
:103A300050F8254024B93846FDF774FB4320E7E7EA
:103A4000012C04D13846FDF76DFB3D20E0E714F86A
:103A5000380F3749085C617888432178344A5054DC
:103A600014F838091146085C30B994F83A10314816
:103A7000007888432F490870E06918B12046E16951
:103A8000FEF758F9206A18B12046216AFDF7B1FC0B
:103A9000A66A16B13046FEF74AFB0020206384F880
:103AA000340084F8350026480078FF2804D22448E2
:103AB0000078401C224908703846FDF733FBFEF7BA
:103AC00038F9FDF72BFB07461D48007820B11C484C
:103AD0000078401E1A4908702046FDF78AFB1948F5
:103AE0000078401E1749087000200F4941F8250052
:103AF000A06930B900206169886113496069086074
:103B000005E0D4E905014861D4E9051088610F4852
:103B1000006860610D4804600DA020653846FDF71F
:103B200001FB0548007815E0AC0F00206C00002078
:103B30005E0000205D00002066000020590000208B
:103B40005A0000206700002078000020700000204C
:103B50003F000000012801D1FDF775FC002057E768
:103B60002DE9F041044600273F2C02D13E20BDE85C
:103B7000F081FF2C0BD1FDF7D1FA0746EB48006826
:103B800090F83B603846FDF7CDFA3046EFE7FDF799
:103B9000C5FA0746E64850F8245025B93846FDF7DF
:103BA000C1FA4320E3E7012D04D13846FDF7BAFA04
:103BB0003D20DCE73F2085F83B003846FDF7B2FAB0
:103BC0000020D4E72DE9F04706460F4614464FF093
:103BD0000008D848007820B1112020700020BDE8EE
:103BE000F087FDF79BFA8046FF2E03D1CF4800688F
:103BF00090F83660CE4850F8265035B94046FDF76B
:103C000091FA432020700020E9E7012D06D14046BB
:103C1000FDF788FA432020700020E0E7286D386027
:103C20003868FDF781FB81464046FDF77BFA0020AE
:103C300020704846D3E72DE9F04106460F4614466A
:103C40004FF00008BB48007818B112202070BDE882
:103C5000F081FDF763FA8046FF2E03D1B348006878
:103C600090F83660B24850F826502DB94046FDF71E
:103C700059FA43202070EAE7012D05D14046FDF7AF
:103C800051FA43202070E2E72F654046FDF74AFADB
:103C90000020207000BFDAE770B505460026FDF76A
:103CA0003DFA0646A24850F8254024B93046FDF7B3
:103CB00039FA462070BD012C04D13046FDF732FAA6
:103CC0004320F7E794F8340000F0080060B314F8DC
:103CD000340F20F00800207014F83409F8B9206B74
:103CE000C8B93834A07894490978084392490870D3
:103CF00020789249085C6178084314F838198F4A93
:103D000050543046FDF70EFA8D480078012809D14D
:103D1000FDF799FB06E03046FDF704FA02E0304675
:103D2000FDF700FA0020C5E73046FDF7FBF9442017
:103D3000C0E72DE9F04707460D464FF0000A002086
:103D400028606860FDF7EAF98246FF2F03D17748C3
:103D5000006890F83670764850F827402CB95046E5
:103D6000FDF7E0F94320BDE8F087012C04D150466F
:103D7000FDF7D8F94320F6E7207C00F0010020B9D8
:103D80005046FDF7CFF94520EDE70026D4F80C901A
:103D9000D4F808805046FDF7C5F900E0761C58F8C5
:103DA000041B0029FAD0B0002860A9EB06008000AF
:103DB00068600020D7E72DE9F04105464FF0000884
:103DC000FDF7ACF98046FF2D05D15848006890F802
:103DD0003650012608E05548006890F83600A842A1
:103DE00001D1012600E00026514850F825402CB9A9
:103DF0004046FDF797F94820BDE8F081012C04D139
:103E00004046FDF78FF94320F6E794F838704B48A9
:103E1000C05D94F8391088434849C8550846C05DCC
:103E200030B994F83A104448007888434249087001
:103E300094F8340040F0080084F834004046FDF760
:103E400071F9012E01D1FDF7FEFA0020D4E72DE92A
:103E5000F04105460E460027FDF760F90746FF2DA5
:103E600003D13248006890F83650314850F8254068
:103E70002CB93846FDF756F92920BDE8F081012C10
:103E800004D13846FDF74EF94320F6E75822214683
:103E90003046FDF7EAFF3846FDF744F90020ECE72D
:103EA0002DE9F04704460E4617464FF00009FDF78E
:103EB00035F98146FF2C02D11C48056802E01C48F8
:103EC00050F8245005F1540050F826804846FDF77C
:103ED00029F9002038704046BDE8F0872DE9F04709
:103EE00004460E46174698464FF00009FDF716F9AE
:103EF0008146FF2C02D10D48056802E00C4850F8BD
:103F0000245005F1540040F826704846FDF70AF9A0
:103F1000002088F80000BDE8F08710B5034800686D
:103F2000FDF769F9FF20FFF76BFD10BD6C00002065
:103F3000AC0F0020590000205D0000205E00002032
:103F40006600002070B5054600265E48007800B186
:103F500070BD1DB3FDF7E2F806465B48006890F8B7
:103F600038405A48005D5849096891F8391088432B
:103F7000564908550846005D40B95348006890F816
:103F80003A10534800788843514908704E480068F9
:103F900005633046FDF7C6F8FDF755FA00BFD7E7D1
:103FA0002DE9F04104460D4616461F464548007867
:103FB00010B15520BDE8F081781D642148434FF4CD
:103FC0007A71B0FBF1F14FF461606043C5EB05120B
:103FD00000EB8200304400EBC00202EB001001EB6A
:103FE00080084046FFF7AEFF0020E3E770B50546C6
:103FF00000263F2D01D32A2070BDFDF78FF806461D
:10400000344850F8254024B93046FDF78BF843205A
:10401000F2E7012C04D13046FDF784F84320EBE7AA
:10402000206B20B93046FDF77DF85020E4E70020F2
:10403000206394F8340000F0370040B114F8340FD6
:1040400020F03700207001206070343C02E0002036
:1040500084F8350094F8340000F00800A8B938342A
:10406000A0781B4909780843194908702078174936
:10407000085C6178084314F83819144A50543046E3
:10408000FDF750F8FDF7DFF902E03046FDF74AF89A
:104090000020B1E770B50025FDF740F805460E4851
:1040A00004682846FDF73EF8204670BD70B504460A
:1040B0000025FDF733F80546074804602846FDF75C
:1040C00031F870BD590000206C0000205E00002017
:1040D0005D000020AC0F0020880000203249014321
:1040E000324A1160704770B5002100230F22C47856
:1040F0001CB32E4C246804F4E064C4F5E064C4F3FB
:104100000721C1F10404E3B20A4144789C40E1B2C2
:104110008478144021430C07210E254C0578615505
:10412000047804F01F050124AC4005786D11AD0042
:1041300005F1E025C5F8004109E0047804F01F0509
:104140000124AC401B4D0678761145F8264070BD21
:10415000194A0A400243154B1B1F1A60704739B1B8
:10416000124A121D12680243104B1B1D1A6006E012
:104170000E4A121D126882430C4B1B1D1A607047B9
:10418000042808D14FF0E021096941F004014FF003
:10419000E022116107E04FF0E021096921F00401FC
:1041A0004FF0E022116170470000FA050CED00E0CD
:1041B00000E400E080E100E080FFFF1F016821F0E3
:1041C000010101600021016041608160C160016105
:1041D00021214161DB49884204D13D21D94A103A6D
:1041E00091608CE0D7491831884205D14FF4746151
:1041F000D44A103A916082E0D2493031884205D1E8
:104200004FF47411CF4A103A916078E0CD494831AB
:10421000884205D14FF07461CA4A103A91606EE04D
:10422000C8496031884204D1C749C64A103AD160B2
:1042300065E0C4497831884204D1C449C14A103A82
:10424000D1605CE0BF499031884204D1C049BD4A89
:10425000103AD16053E0BB49A831884205D14FF0F4
:104260003D51B84A103AD16049E0BA49884204D178
:104270003D21B84A083A116041E0B64918318842F8
:1042800005D14FF47461B34A083A116037E0B1497F
:104290003031884205D14FF47411AE4A083A1160AA
:1042A0002DE0AC494831884205D14FF07461A94AEC
:1042B000083A116023E0A7496031884204D1A2493D
:1042C000A44A121F11601AE0A2497831884204D131
:1042D0009E49A04A121F116011E09E499031884208
:1042E00004D19B499B4A121F116008E09949A831EB
:1042F000884204D14FF03D51964A121F1160704719
:1043000010B500220268944B1A40CC680B68234316
:104310004C6923438C692343CC6923430C6A2343B0
:104320004C6A23438C6A23434C6B23438C6B23439B
:104330001A430260426922F00702D1E90B34234399
:104340001A4342610B6943604B6883608B68C360AA
:1043500010BD0021016041608160C1600161416167
:104360008161C161016241628162C1620163416335
:104370008163704721B1026842F00102026003E0EC
:10438000026822F001020260704721B1026842F423
:104390000042026003E0026822F4004202607047BB
:1043A00021B1026842F02002026003E0026822F0BC
:1043B000200202607047416070470146486880B241
:1043C000704722B1036843F40023036003E00368ED
:1043D00023F4002303600161704721B1026842F4B5
:1043E0008022026003E0026822F4802202607047AB
:1043F0000AB1016100E0C1607047014600200A680F
:1044000002F400220AB1012000E0002070470146BA
:1044100000200A6802F001020AB1012000E0002039
:104420007047014600204A6902F03800704730B5F5
:1044300003460A4600200024464DAB4202D24149C1
:10444000103901E04349103902F000550DB14C68B4
:1044500000E00C68414D2C4004EA02050DB101203A
:1044600000E0002030BD02463A4B9A4202D2354865
:10447000103801E03748103801F000531BB1374BBA
:104480000B40C36002E0354B0B408360704710B5B2
:1044900001F080034BB122B1436943F080034361D3
:1044A00003E0436923F08003436180290BD02AB1E4
:1044B000036801F01E042343036004E0036801F075
:1044C0001E04A343036010BD70B502460020002403
:1044D0000025204EB24202D21A4B103B01E01D4B88
:1044E000103B1F4E0E4036B11E2606EAD124166838
:1044F00006EA040502E0566906F0800501F0005660
:104500000EB15C6800E01C68144E344004EA0106F9
:1045100016B10DB1012000E0002070BD02460D4B28
:104520009A4202D20748103801E00A48103801F0D8
:1045300000531BB1094B0B40C36002E0074B0B401B
:1045400083607047106002403D000020400F002053
:1045500000003D20106402403F801CF07D0F7D0F65
:104560003C0F3C0F002041490860091D0860091DEF
:104570000860091D08603E483C49143108607047D6
:1045800000213A498279002A3AD00A461268036823
:104590009A430B461A600A1D126803689A430B1D62
:1045A0001A60027911440A6803681A430A602F4AA4
:1045B0000832126803689A432C4B08331A601A1D9C
:1045C000126803689A43294B0C331A604279102A07
:1045D0000ED11A1F126803681A43244B08331A605D
:1045E0001A1D126803681A43204B0C331A600DE041
:1045F0001E49427911440A6803681A430A6005E0BB
:10460000027911440A6803689A430A6070470021DE
:10461000016001710C2141710021817170471349C2
:10462000103109680143114A103211607047014688
:1046300000200E4A143212680A400AB1012000E03C
:104640000020704709491431086070470146002076
:10465000064A143212680A400AB1012000E0002024
:10466000704702491431086070470000003C014067
:10467000FFFF7F0010B504469848844208D101210D
:10468000084600F086FB0021012000F082FB76E066
:104690009348844208D10121022000F07AFB0021D6
:1046A000022000F076FB6AE08E48844208D10121A6
:1046B000042000F06EFB0021042000F06AFB5EE0A5
:1046C0008948844208D10121082000F062FB0021C2
:1046D000082000F05EFB52E08448844208D10121AA
:1046E000102000F056FB0021102000F052FB46E0A5
:1046F0007F48844208D10121202000F04AFB00219C
:10470000202000F046FB3AE07A48844208D101219B
:10471000402000F03EFB0021402000F03AFB2EE05C
:104720007548844208D10121802000F032FB00212D
:10473000802000F02EFB22E07048844208D1012145
:10474000801500F026FB0021A01500F022FB16E0EA
:104750006B48844208D10121401500F01AFB00216A
:10476000601500F016FB0AE06648844207D101217B
:10477000001500F00EFB0021201500F00AFB10BD13
:10478000F0B50A4600210023002400BF3DE00125CA
:1047900005FA01F3156805EA03049C4234D1056863
:1047A0004F000326BE40B543056015794E00B54065
:1047B0000668354305601579012D02D01579022D63
:1047C00016D185684F000326BE40B54385605579F4
:1047D0004E00B540866835438560456801268E40A9
:1047E000B5434560456896798E40B6B2354345601D
:1047F000C5684F000326BE40B543C560D5794E005D
:10480000B540C6683543C560491C1029BFD3F0BD0B
:104810004FF6FF7101600021017141718171C17119
:10482000704708B54FF480320092009A0A43009214
:10483000009AC261C161009AC261C2690092C269F4
:10484000009208BD0246002013690B400BB1012005
:1048500000E0002070470146086980B270470246B8
:10486000002053690B400BB1012000E0002070478D
:104870000146486980B270470183704741837047A1
:104880000AB1018300E0418370474161704742698A
:104890004A4042617047F0B5002300244D07ED0EF9
:1048A00002FA05F3CE1000F1200555F826504E0708
:1048B000F70E0F26BE40B543CF1000F1200646F894
:1048C0002750CE1000F1200555F8265045EA030484
:1048D000CE1000F1200545F82640F0BD0000024052
:1048E0000004024000080240000C02400010024098
:1048F0000014024000180240001C02400020024048
:104900000024024000280240F948006840F00100FD
:10491000F74908600020F64908310860F44800684B
:10492000F4490840F2490860F348091D0860F3485B
:10493000EF4984310860F0481038091D0860EC48E0
:10494000006820F48020EA4908600020E8490C3122
:104950000860E7498C31086070470021E44A921CE6
:10496000117011460870704710B5014600220023EF
:1049700000204A11012A02D1DD4C236808E0022AF6
:1049800003D1DB4C7034236802E0D94C74342368C3
:1049900001F01F02012494401C400CB1012000E0F2
:1049A000002010BD38B5002000900024002500BF75
:1049B0003120FFF7D9FF05460098401C0090009871
:1049C000B0F5A04F01D0002DF2D03120FFF7CCFF81
:1049D00008B1012400E00024204638BD0146002033
:1049E000C34A106820F0F80040EAC1001060704728
:1049F000C349086070470021BD4A703211701170C0
:104A0000012802D004280AD104E00121B84A7032FA
:104A1000117005E00521B64A7032117000E000BF48
:104A200000BF7047B7490860704770B5049C41EA01
:104A300082150126C6EB530645EA0645054345EABD
:104A40000465AB4E361D356070BDAD4908667047D4
:104A5000820142EA0172A64B84331A607047A8496A
:104A60008866704710B5830143EA016343EA027325
:104A70009F4C8834236010BDA14908677047A04946
:104A8000C864704702460020994B0833186820F02C
:104A9000EC6042EA01031843954B083318607047F5
:104AA00002460020924B0833186820F0784042EA12
:104AB000010318438E4B08331860704701460020ED
:104AC0008B4A0832106820F00300084310607047DA
:104AD00087480830006800F00C007047014600204D
:104AE000834A0832106820F0F000084310607047D5
:104AF000014600207E4A0832106820F4E050084346
:104B00001060704701460020794A0832106820F48E
:104B1000604040EAC10010607047F0B500210022FB
:104B20000024022500260223714F08373F6807F052
:104B30000C0121B1042905D0082937D105E0724FB5
:104B4000076036E0714F076033E0694F3F1D3F68F3
:104B5000C7F38056664F3F1D3F6807F03F036EB1B5
:104B60006A4FB7FBF3F7DFF888C10CF1040CDCF8EF
:104B700000C0CCF3881C07FB0CF40CE0624FB7FBC1
:104B8000F3F7DFF86CC10CF1040CDCF800C0CCF3D7
:104B9000881C07FB0CF4564F3F1D3F68C7F30147C5
:104BA0007F1C7D00B4FBF5F7076002E0564F0760FD
:104BB00000BF00BF4E4F08373F6807F0F0010909FA
:104BC000534F7A5C0768D7404760494F08373F68C2
:104BD00007F4E051890A4E4F7A5C4768D7408760F6
:104BE000434F08373F6807F46041490B484F7A5CF0
:104BF0004768D740C760F0BD002100F44072B2F5AD
:104C0000407F0AD13A4A0832116821F4F811414A2A
:104C100002401143364A08321160354A7032126838
:104C2000C0F30B031A43324B70331A607047354997
:104C30004439086070473349403908607047364945
:104C40000860704701460020294A8C32106820F421
:104C5000401008431060704701460020244A8C32FF
:104C6000106820F44000084310607047014600209F
:104C70001F4A8C32106820F01F004A1E10431C4A45
:104C80008C321060704701460020194A8C3210683F
:104C900020F4F8504A1E40EA0220154A8C32106077
:104CA000704701460020124A8C32106820F44030D0
:104CB00008431060704719490860704739B10C4AC1
:104CC0003032126802430A4B30331A6006E0084A59
:104CD000303212688243064B30331A607047F9B1A4
:104CE000034A343212680243014B34331A601CE029
:104CF00000380240FFFFF6EA1030002400300020A8
:104D000000004742800E47420024F40040787D01B5
:104D10008C000020FFFCFF0F5C014742E01147427E
:104D20008F4A126882438E4B1A60704739B18C4AA1
:104D3000121D126802438A4B1B1D1A6006E0884A46
:104D4000121D12688243864B1B1D1A60704739B1D1
:104D5000834A0C3212680243814B0C331A6006E01E
:104D60007F4A0C32126882437D4B0C331A607047C5
:104D700039B17B4A103212680243794B10331A6002
:104D800006E0774A103212688243754B10331A607E
:104D9000704739B1724A243A12680243704B243B7F
:104DA0001A6006E06E4A243A126882436C4B243B38
:104DB0001A60704739B16A4A203A12680243684B58
:104DC000203B1A6006E0664A203A12688243644B30
:104DD000203B1A60704739B1614A1C3A126802439D
:104DE0005F4B1C3B1A6006E05D4A1C3A1268824326
:104DF0005B4B1C3B1A60704739B1594A143A126830
:104E00000243574B143B1A6006E0554A143A1268A5
:104E10008243534B143B1A60704739B1504A103AE1
:104E2000126802434E4B103B1A6006E04C4A103A9F
:104E3000126882434A4B103B1A60704739B1484AA6
:104E40001C3212680243464B1C331A6006E0444A87
:104E50001C3212688243424B1C331A60704739B1CE
:104E60003F4A2032126802433D4B20331A6006E06D
:104E70003B4A203212688243394B20331A60704714
:104E800039B1374A243212680243354B24331A6051
:104E900006E0334A243212688243314B24331A60CD
:104EA000704739B12E4A2C32126802432C4B2C33F6
:104EB0001A6006E02A4A2C3212688243284B2C33AF
:104EC0001A60704739B1264A303212680243244BC7
:104ED00030331A6006E0224A303212688243204B97
:104EE00030331A607047012808D11D493C310968E8
:104EF00041F008011A4A3C32116007E018493C3180
:104F0000096821F00801164A3C321160704739B136
:104F1000134A273A12780243114B273B1A7006E0D6
:104F20000F4A273A127882430D4B273B1A7070477D
:104F30000B484030006840F08070094940310860FB
:104F4000704701460020064A283A12680A400AB112
:104F5000012000E0002070470149263908707047A1
:104F60003438024010B501218803FFF756FF0021B5
:104F70004FF48040FFF751FF10BD1C490860704797
:104F80001B490862704730B500228B071C0F0F23A6
:104F900003FA04F2154B08338C1053F82430934372
:104FA000124C08348D1044F8253023468C1053F8E9
:104FB00024308C07240F00FA04F423430B4C0834EC
:104FC0008D1044F8253030BD0949DC310860704748
:104FD000084908607047002004492031096801F43D
:104FE000807109B1012000E00020704700380140C5
:104FF000000027420004274210B50446FE488442C0
:1050000008D101210846FFF708FF00210120FFF722
:1050100004FF9DE0B4F1804F08D101210846FFF75D
:10502000EBFE00210120FFF7E7FE91E0F348844208
:1050300008D101210220FFF7DFFE00210220FFF747
:10504000DBFE85E0EE48844208D101210420FFF711
:10505000D3FE00210420FFF7CFFE79E0E948844227
:1050600008D101210820FFF7C7FE00210820FFF723
:10507000C3FE6DE0E448844208D101211020FFF70F
:10508000BBFE00211020FFF7B7FE61E0DF4884423D
:1050900008D101212020FFF7AFFE00212020FFF7DB
:1050A000ABFE55E0DA48844208D101210220FFF727
:1050B000B4FE00210220FFF7B0FE49E0D54884424B
:1050C00009D101210804FFF7A8FE00214FF4803028
:1050D000FFF7A3FE3CE0D048844209D101214804F7
:1050E000FFF79BFE00214FF40030FFF796FE2FE004
:1050F000CA48844209D101218804FFF78EFE0021AD
:105100004FF48020FFF789FE22E0C548844208D191
:1051100001214020FFF770FE00214020FFF76CFEC8
:1051200016E0C048844208D101218020FFF764FEC8
:1051300000218020FFF760FE0AE0BB48844207D1CF
:1051400001218015FFF758FE0021A015FFF754FE3E
:1051500010BD00220288A84B98420ED0AC4B98425A
:105160000BD0B0F1804F08D0A44B984205D0A44B8F
:10517000984202D0A34B984204D14FF68F731A4045
:105180004B881A43A04B984207D0A04B984204D0BA
:105190004FF6FF431A400B891A4302804B68C362E3
:1051A0000B880385944B984202D0994B984201D1C9
:1051B0008B7A03860123838270474FF0FF31416071
:1051C00000210180018141808172704701858282C6
:1051D00070470A46002101884FF68F73194011432A
:1051E0000180704741627047C16270470146486A5A
:1051F00070470146088D704721B1028842F00202D3
:10520000028004E002884FF6FD731A400280704766
:1052100021B1028842F00402028004E002884FF6C5
:10522000FB731A400280704721B1028842F080026D
:10523000028004E002884FF67F731A4002807047B4
:1052400002884FF6F7731A40028002880A430280F0
:10525000704702884FF6FF431A40028002880A43D3
:105260000280704721B1028842F00102028004E00E
:1052700002884FF6FE731A400280704770B5002412
:1052800000220023058C4FF6FE7635400584028C03
:105290008388048B4FF68F752C40B51E2C400D88EB
:1052A0002C43751E2A408D892A434D882A43524D2E
:1052B000A84202D0564DA84213D14FF6F7752A40A6
:1052C000CD892A434FF6FB752A408D882A434FF635
:1052D000FF652B404FF6FF552B400D8A2B434D8A1F
:1052E0002B43838004838D684563028470BD70B551
:1052F000002400220023058C4FF6EF76354005840C
:10530000028C8388048B48F6FF752C404FF6FF45CE
:105310002C400D884FF6FF7606EA05252C434FF604
:10532000DF752A408D8906EA05152A434D8806EA6D
:1053300005152A43304DA84202D0354DA8421DD153
:105340004FF67F752A40CD894FF6FF7606EA0515A0
:105350002A434FF6BF752A408D8806EA05152A4371
:105360004FF6FF352B404FF2FF752B400D8A06EAB2
:1053700085052B434D8A06EA85052B4383800483EC
:105380008D688563028470BD70B5002400220023FF
:10539000058C4FF6FF6635400584028C8388848B2C
:1053A0004FF68F752C404FF6FC752C400D882C4322
:1053B0004FF6FF552A408D894FF6FF7606EA052500
:1053C0002A434D8806EA05252A430B4DA84202D000
:1053D0000F4DA84238D14FF2FF752A40CD894FF6C4
:1053E000FF7606EA05252A434FF6FF352A408D88C9
:1053F00006EA05252A4319E00000014000040040A8
:1054000000080040000C0040001000400014004064
:1054100000040140004001400044014000480140B8
:1054200000180040001C0040002000404EF6FF75B0
:105430002B404DF6FF752B400D8A06EA05152B43D0
:105440004D8A06EA05152B43838084838D68C563E6
:10545000028470BD70B5002200230024058C4EF636
:10546000FF7635400584038C8488828B48F6FF756F
:105470002A404FF6FF452A400D884FF6FF7606EA90
:1054800005252A434DF6FF752B408D8906EA053523
:105490002B434D8806EA05352B43FE4DA84202D02A
:1054A000FD4DA84208D14BF6FF752C400D8A4FF6F2
:1054B000FF7606EA85152C43848082838D68056417
:1054C000038470BD002101804180818081608181E1
:1054D000C18101824182704770B5034600200024DB
:1054E0001846183001258D40ACB21D8CA5431D8493
:1054F00009B108290AD100EB610005684FF68F76E3
:10550000354005600568154305600FE00D1FC5F3C4
:105510004E052844056848F6FF7635400560056865
:105520004FF6FF7606EA02263543056070BD4163FB
:10553000704781637047C1637047016470470A46D2
:105540000021018B4FF68F7319401143018370477F
:105550000A460021018B48F6FF7319404FF6FF738E
:1055600003EA02231943018370470A460021818B15
:105570004FF68F7319401143818370470A4600210B
:10558000818B48F6FF7319404FF6FF7303EA02233D
:105590001943818370470A460021018B4FF6F77348
:1055A00019401143018370470A460021018B4FF2D5
:1055B000FF7319404FF6FF7303EA02231943018377
:1055C00070470A460021818B4FF6F773194011434B
:1055D000818370470A460021818B4FF2FF73194087
:1055E0004FF6FF7303EA02231943818370470A468B
:1055F0000021018B4FF6FB73194011430183704763
:105600000A460021018B4FF6FF3319404FF6FF7316
:1056100003EA02231943018370470A460021818B64
:105620004FF6FB7319401143818370470A460021EE
:10563000818B4FF6FF3319404FF6FF7303EA0223C5
:105640001943818370470A460021018B4FF67F730F
:1056500019401143018370470A460021018BC1F3B1
:105660000E014FF6FF7303EA0223194301837047CB
:105670000A460021818B4FF67F73194011438183C5
:1056800070470A460021818BC1F30E014FF6FF736C
:1056900003EA02231943818370470A460021018CE3
:1056A0004FF6FD7319401143018470470A460021EB
:1056B000018C4FF6F77319401143018470470A4675
:1056C0000021018C4FF6DF7319404FF6FF7303EA98
:1056D00002131943018470470A460021018C4FF6DA
:1056E0007F7319404FF6FF7303EA021319430184D5
:1056F00070470A460021018C4FF6FF5319404FF6C0
:10570000FF7303EA02231943018470470A4600210C
:10571000018C4FF2FF7319404FF6FF7303EA022327
:105720001943018470470A460021018C4DF6FF732E
:1057300019404FF6FF7303EA02331943018470479F
:1057400030B5002301248C40A3B2048C9C43048414
:10575000048C02FA01F5ADB22C43048430BD30B59F
:10576000002304248C40A3B2048C9C430484048C46
:1057700002FA01F5ADB22C43048430BD828B4FF2A6
:10578000FF331A408283828B4FF6FF7303EA0123B3
:105790001A4382837047F0B50C461546002100225B
:1057A0000026078C4EF6FF7C07EA0C070784818BE6
:1057B000028C4FF6FF7707EA043640F6FF47394080
:1057C0004FF6FF7707EA052739434FF6FF7707EAD9
:1057D0000337394345F6FF773A4046F480573A435A
:1057E00081830284F0BD828B4FF6F3731A4082836B
:1057F000828B0A4382837047F0B50C461546002120
:1058000000220026078C4FF6FF6C07EA0C0707847E
:10581000818B028C4FF6FF7707EA04264FF60C7750
:1058200039404FF6FF7707EA03172F4339434FF20A
:10583000FF573A4046F480773A4381830284F0BDB3
:10584000028B4FF2FF331A400283028B4FF6FF7335
:1058500003EA01231A4302837047F0B50C4615464C
:10586000002100220026078C4FF6EF7C07EA0C0788
:105870000784018B028C4FF6FF7707EA041640F687
:10588000FF4739404FF6FF7707EA033739434FF6B2
:10589000FF7703E0000001400004014007EA05270C
:1058A00039434FF65F773A4046F010073A43018399
:1058B0000284F0BD028B4FF6F3731A400283028B11
:1058C0000A4302837047F0B50C46154600210022BA
:1058D000068C4FF6FE773E400684018B028C4FF615
:1058E0000C7631407E1C06EA03162E4331434FF6F8
:1058F000F576324044F00106324301830284F0BD64
:1059000070B505460C46208850B92389A288618865
:105910002846FFF7D8FFE1882846FFF7CBFF25E0B0
:10592000208804280AD12389A28861882846FFF7A5
:1059300094FFE1882846FFF783FF17E020880828B6
:105940000AD12389A28861882846FFF755FFE1889C
:105950002846FFF748FF09E02389A2886188284686
:10596000FFF719FFE1882846FFF708FF70BD002107
:1059700001804180012181800021C1800181704727
:105980002DE9F04105460C4600260127608808B93C
:10599000022600E00026A088012801D1022700E0AD
:1059A00001272088A0B92389A28861882846FFF7AB
:1059B0008AFFE1882846FFF77DFF23893A46314672
:1059C0002846FFF74AFFE1882846FFF739FF13E032
:1059D0002389A28861882846FFF73FFFE18828468F
:1059E000FFF72EFF23893A4631462846FFF76BFF23
:1059F000E1882846FFF75EFFBDE8F0810146486B6D
:105A000070470146886B70470146C86B7047014676
:105A1000086C70470A884B881A438B881A43CB88D6
:105A20001A430B891A434B891A438B891A43A0F8EE
:105A3000442070470021018041808180C180018124
:105A400041818181704731B1B0F8442042F4004275
:105A5000A0F8442005E0B0F84420C2F30E02A0F8FC
:105A60004420704721B1828842F00402828004E021
:105A700082884FF6FB731A408280704721B182887A
:105A800042F00102828004E082884FF6FE731A40E1
:105A9000828070471AB183890B43838102E0838936
:105AA0008B43838170478182704702460020138AAE
:105AB0000B400BB1012000E000207047CA43028276
:105AC000704730B50246002000230024158A05EAFD
:105AD0000103958905EA010413B10CB1012000E02E
